:020000040800F2
:1000000000000220293900084D3200085332000850
:10001000593200085F320008653200080000000015
:100020000000000000000000000000006B3200082B
:10003000793200080000000087320008953200087D
:1000400079390008793900087939000879390008C8
:1000500079390008793900087939000879390008B8
:1000600079390008793900087939000879390008A8
:100070007939000879390008793900087939000898
:10008000A1320008B5320008793900087939000832
:100090007939000879390008793900087939000878
:1000A0007939000879390008793900087939000868
:1000B0007939000879390008793900087939000858
:1000C0007939000879390008793900087939000848
:1000D00079390008C9320008DD3200087939000892
:1000E0007939000879390008793900087939000828
:1000F0007939000879390008793900087939000818
:100100007939000879390008793900087939000807
:1001100079390008793900087939000879390008F7
:100120007939000879390008F13200087939000876
:1001300079390008793900087939000879390008D7
:1001400079390008793900087939000879390008C7
:100150007939000879390008053300087939000831
:1001600079390008793900087939000879390008A7
:100170007939000879390008793900080000000051
:08018000793900087939000803
:1001900010B5054C237833B9044B13B10448AFF3C1
:1001A00000800123237010BD6403002000000000C4
:1001B00090C3000808B5034B1BB103490348AFF3D4
:1001C000008008BD000000006803002090C3000804
:1001D00001F0FF01102A2BDB10F0070F08D010F8F8
:1001E000013B013A8B422DD010F0070F42B3F6D1FC
:1001F000F0B441EA012141EA014122F007047FF015
:1002000000070023F0E80256083C85EA010586EA6B
:10021000010685FA47F5A3FA87F586FA47F6A5FAA7
:1002200087F68EB9EED1F0BC01F0FF0102F00702B3
:1002300032B110F8013B013A83EA010313B1F8D15E
:100240000020704701387047002D06BF354603383F
:10025000073815F0010F07D1013015F4807F02BF78
:10026000013015F4C03F0130F0BC0138704700BFC9
:10027000034613F8012B002AFBD1181A01387047E6
:1002800081F0004102E000BF83F0004330B54FEA47
:1002900041044FEA430594EA050F08BF90EA020FB4
:1002A0001FBF54EA000C55EA020C7FEA645C7FEA47
:1002B000655C00F0E2804FEA5454D4EB5555B8BF6A
:1002C0006D420CDD2C4480EA020281EA030382EADB
:1002D000000083EA010180EA020281EA0303362D6D
:1002E00088BF30BD11F0004F4FEA01314FF4801C40
:1002F0004CEA113102D0404261EB410113F0004F52
:100300004FEA03334CEA133302D0524263EB430308
:1003100094EA050F00F0A780A4F10104D5F1200EA6
:100320000DDB02FA0EFC22FA05F2801841F1000101
:1003300003FA0EF2801843FA05F359410EE0A5F1D5
:1003400020050EF1200E012A03FA0EFC28BF4CF006
:10035000020C43FA05F3C01851EBE37101F00045BC
:1003600007D54FF0000EDCF1000C7EEB00006EEBC9
:100370000101B1F5801F1BD3B1F5001F0CD3490853
:100380005FEA30004FEA3C0C04F101044FEA4452AA
:1003900012F5800F80F09A80BCF1004F08BF5FEA31
:1003A000500C50F1000041EB045141EA050130BD11
:1003B0005FEA4C0C404141EB0101013C28BFB1F523
:1003C000801FE9D291F0000F04BF01460020B1FA6E
:1003D00081F308BF2033A3F10B03B3F120020CDA41
:1003E0000C3208DD02F1140CC2F10C0201FA0CF01F
:1003F00021FA02F10CE002F11402D8BFC2F1200C84
:1004000001FA02F120FA0CFCDCBF41EA0C01904039
:10041000E41AA2BF01EB0451294330BD6FEA040482
:100420001F3C1CDA0C340EDC04F11404C4F120026D
:1004300020FA04F001FA02F340EA030021FA04F37F
:1004400045EA030130BDC4F10C04C4F1200220FAD6
:1004500002F001FA04F340EA0300294630BD21FA14
:1004600004F0294630BD94F0000F83F4801306BFDA
:1004700081F480110134013D4EE77FEA645C18BFCE
:100480007FEA655C29D094EA050F08BF90EA020F65
:1004900005D054EA000C04BF1946104630BD91EA5D
:1004A000030F1EBF0021002030BD5FEA545C05D160
:1004B0004000494128BF41F0004130BD14F580049F
:1004C0003CBF01F5801130BD01F0004545F0FE4113
:1004D00041F470014FF0000030BD7FEA645C1ABF48
:1004E000194610467FEA655C1CBF0B46024650EA7F
:1004F000013406BF52EA033591EA030F41F40021AB
:1005000030BD00BF90F0000F04BF0021704730B530
:100510004FF4806404F132044FF000054FF0000105
:1005200050E700BF90F0000F04BF0021704730B5C6
:100530004FF4806404F1320410F0004548BF40429B
:100540004FF000013EE700BF42004FEAE2014FEAF0
:1005500031014FEA02701FBF12F07F4393F07F4FCB
:1005600081F06051704732F07F4208BF704793F0CE
:100570007F4F04BF41F40021704730B54FF46074E1
:1005800001F0004521F000411CE700BF50EA0102E4
:1005900008BF704730B54FF000050AE050EA01028D
:1005A00008BF704730B511F0004502D5404261EBFD
:1005B00041014FF4806404F132045FEA915C3FF43E
:1005C000D8AE4FF003025FEADC0C18BF03325FEADB
:1005D000DC0C18BF033202EBDC02C2F1200300FA8C
:1005E00003FC20FA02F001FA03FE40EA0E0021FAB1
:1005F00002F11444BDE600BF70B54FF0FF0C4CF49F
:10060000E06C1CEA11541DBF1CEA135594EA0C0F50
:1006100095EA0C0F00F0DEF82C4481EA030621EA8B
:100620004C5123EA4C5350EA013518BF52EA0335C6
:1006300041F4801143F4801338D0A0FB02CE4FF078
:100640000005E1FB02E506F00042E0FB03E54FF0A8
:100650000006E1FB03569CF0000F18BF4EF0010EA0
:10066000A4F1FF04B6F5007F64F5407404D25FEA9C
:100670004E0E6D4146EB060642EAC62141EA55514F
:100680004FEAC52040EA5E504FEACE2EB4F1FD0C91
:1006900088BFBCF5E06F1ED8BEF1004F08BF5FEA0F
:1006A000500E50F1000041EB045170BD06F00046C1
:1006B00046EA010140EA020081EA0301B4EB5C046E
:1006C000C2BFD4EB0C0541EA045170BD41F4801166
:1006D0004FF0000E013C00F3AB8014F1360FDEBF8B
:1006E000002001F0004170BDC4F10004203C35DA67
:1006F0000C341BDC04F11404C4F1200500FA05F3EA
:1007000020FA04F001FA05F240EA020001F000428A
:1007100021F0004110EBD37021FA04F642EB060100
:100720005EEA430E08BF20EAD37070BDC4F10C042A
:10073000C4F1200500FA04F320FA05F001FA04F2EE
:1007400040EA020001F0004110EBD37041F10001DA
:100750005EEA430E08BF20EAD37070BDC4F12005E5
:1007600000FA05F24EEA020E20FA04F301FA05F24D
:1007700043EA020321FA04F001F0004121FA04F2F5
:1007800020EA020000EBD3705EEA430E08BF20EAC5
:10079000D37070BD94F0000F0FD101F000464000FF
:1007A00041EB010111F4801F08BF013CF7D041EA81
:1007B000060195F0000F18BF704703F00046520085
:1007C00043EB030313F4801F08BF013DF7D043EA56
:1007D0000603704794EA0C0F0CEA135518BF95EA0C
:1007E0000C0F0CD050EA410618BF52EA4306D1D193
:1007F00081EA030101F000414FF0000070BD50EAB2
:10080000410606BF1046194652EA430619D094EA3B
:100810000C0F02D150EA013613D195EA0C0F05D125
:1008200052EA03361CBF104619460AD181EA030179
:1008300001F0004141F0FE4141F470014FF0000031
:1008400070BD41F0FE4141F4780170BD70B54FF0CC
:10085000FF0C4CF4E06C1CEA11541DBF1CEA13554C
:1008600094EA0C0F95EA0C0F00F0A7F8A4EB05042E
:1008700081EA030E52EA03354FEA013100F0888025
:100880004FEA03334FF0805545EA131343EA1263EE
:100890004FEA022245EA111545EA10654FEA0026A3
:1008A0000EF000419D4208BF964244F1FD0404F55C
:1008B000407402D25B084FEA3202B61A65EB0305B8
:1008C0005B084FEA32024FF480104FF4002CB6EB75
:1008D000020E75EB030E22BFB61A754640EA0C00F5
:1008E0005B084FEA3202B6EB020E75EB030E22BF35
:1008F000B61A754640EA5C005B084FEA3202B6EB76
:10090000020E75EB030E22BFB61A754640EA9C0034
:100910005B084FEA3202B6EB020E75EB030E22BF04
:10092000B61A754640EADC0055EA060E18D04FEAC2
:10093000051545EA16754FEA06164FEAC30343EA62
:1009400052734FEAC2025FEA1C1CC0D111F4801F2F
:100950000BD141EA00014FF000004FF0004CB6E728
:1009600011F4801F04BF01430020B4F1FD0C88BFC7
:10097000BCF5E06F3FF6AFAEB5EB030C04BFB6EBD2
:10098000020C5FEA500C50F1000041EB045170BDC5
:100990000EF0004E4EEA113114EB5C04C2BFD4EBF2
:1009A0000C0541EA045170BD41F480114FF0000E76
:1009B000013C90E645EA060E8DE60CEA135594EAF2
:1009C0000C0F08BF95EA0C0F3FF43BAF94EA0C0FF5
:1009D0000AD150EA01347FF434AF95EA0C0F7FF46A
:1009E00025AF104619462CE795EA0C0F06D152EABE
:1009F00003353FF4FDAE1046194622E750EA4106A2
:100A000018BF52EA43067FF4C5AE50EA41047FF4B2
:100A10000DAF52EA43057FF4EBAE12E74FF0FF3C17
:100A200006E000BF4FF0010C02E000BF4FF0010CE8
:100A30004DF804CD4FEA410C7FEA6C5C4FEA430C61
:100A400018BF7FEA6C5C1BD001B050EA410C0CBFB0
:100A500052EA430C91EA030F02BF90EA020F002012
:100A6000704710F1000F91EA030F58BF994208BF79
:100A700090422CBFD8176FEAE37040F00100704736
:100A80004FEA410C7FEA6C5C02D150EA013C07D18D
:100A90004FEA430C7FEA6C5CD6D152EA033CD3D0D8
:100AA0005DF8040B704700BF8446104662468C46D2
:100AB0001946634600E000BF01B5FFF7B7FF002805
:100AC00048BF10F1000F01BD4DF808EDFFF7F4FF2E
:100AD0000CBF012000205DF808FB00BF4DF808EDB9
:100AE000FFF7EAFF34BF012000205DF808FB00BFDC
:100AF0004DF808EDFFF7E0FF94BF012000205DF8FE
:100B000008FB00BF4DF808EDFFF7CEFF94BF0120B2
:100B100000205DF808FB00BF4DF808EDFFF7C4FFAB
:100B200034BF012000205DF808FB00BF4FEA410CF4
:100B30007FEA6C5C02D150EA013C0AD14FEA430CD7
:100B40007FEA6C5C02D152EA033C02D14FF0000014
:100B500070474FF0010070474FEA410212F5001252
:100B600015D211D56FF47873B3EB625212D94FEAF4
:100B7000C12343F0004343EA505311F0004F23FADE
:100B800002F018BF404270474FF00000704750EA33
:100B9000013005D111F0004008BF6FF000407047F0
:100BA0004FF00000704700BF4A0011D212F500124A
:100BB00011D20DD56FF47873B3EB62520ED44FEAB5
:100BC000C12343F0004343EA505323FA02F0704735
:100BD0004FF00000704750EA013002D14FF0FF3073
:100BE00070474FF0000070474FEA4102B2F1E04316
:100BF00024BFB3F5001CDCF1FE5C0DD901F0004C04
:100C00004FEAC0024CEA5070B2F1004F40EB830053
:100C100008BF20F00100704711F0804F21D113F17F
:100C20003872BCBF01F00040704741F480114FEAB8
:100C30005252C2F11802C2F1200C10FA0CF320FA41
:100C400002F018BF40F001004FEAC1234FEAD3235E
:100C500003FA0CFC40EA0C0023FA02F34FEA4303C8
:100C6000CCE77FEA625307D150EA01331EBF4FF051
:100C7000FE4040F44000704701F0004040F0FE406C
:100C800040F40000704700BF53B94AB9002908BFBB
:100C900000281CBF4FF0FF314FF0FF3000F0A6B925
:100CA000ADF1080C6DE904CE00F03CF8DDF804E08D
:100CB000DDE9022304B0704738B500220023044662
:100CC0000D46FFF70BFF28B920462946BDE83840FE
:100CD00000F00AB8204605F1004100F005F8404256
:100CE00061EB410138BD00BFD0B50C4B0022064678
:100CF0000F46FFF781FCFFF757FF0446FFF702FCA2
:100D0000074B0022FFF778FC02460B463046394677
:100D1000FFF7BAFAFFF748FF2146D0BD0000F03DCB
:100D20000000F0412DE9F047089E0D4604460F46AD
:100D3000002B4AD18A42944665D9B2FA82F343B174
:100D400002FA03FCC3F120029F4020FA02F217438B
:100D50009C404FEA1C4E1FFA8CF5B7FBFEF1220CAB
:100D60000EFB117742EA074201FB05F090420AD9D7
:100D70001CEB020201F1FF3780F01C81904240F22F
:100D8000198102396244121AA4B2B2FBFEF00EFBC2
:100D9000102244EA024400FB05F5A5420AD91CEBE7
:100DA000040400F1FF3280F00781A54240F2048183
:100DB0006444023840EA0140641B00211EB1DC405B
:100DC0000023C6E90043BDE8F0878B4208D9002E16
:100DD00000F0ED800021C6E900050846BDE8F08777
:100DE000B3FA83F1002949D1AB4202D3824200F227
:100DF000F880841A65EB030201201746002EE2D02A
:100E0000C6E90047DFE702B9FFDEB2FA82F3002B42
:100E100040F090808A1A4FEA1C471FFA8CFE01218D
:100E2000B2FBF7F507FB1520220C42EA00420EFB4D
:100E300005F0904208D91CEB020205F1FF3802D2FE
:100E4000904200F2CB804546121AA4B2B2FBF7F0F2
:100E500007FB102244EA02440EFB00FEA64508D917
:100E60001CEB040400F1FF3202D2A64500F2BB8065
:100E70001046A4EB0E0440EA05409FE7C1F12007AD
:100E80008B4022FA07FC4CEA030C05FA01F420FA25
:100E900007F3FD404FEA1C492343B5FBF9F81FFA5D
:100EA0008CFE09FB18551C0C44EA054408FB0EF5A2
:100EB000A54202FA01F200FA01F00BD91CEB04047E
:100EC00008F1FF3A80F08880A54240F28580A8F1C1
:100ED00002086444641B9DB2B4FBF9F309FB13449C
:100EE00045EA044403FB0EFEA64508D91CEB0404A6
:100EF00003F1FF356CD2A6456AD9023B644443EA4C
:100F00000843A3FB0295A4EB0E04AC42C846AE46D0
:100F100056D353D056B1B0EB080264EB0E0404FA7A
:100F200007F7CA40CC401743C6E9007418460021B1
:100F3000BDE8F087C3F1200102FA03FC20FA01F2B8
:100F400025FA01F19D402A434FEA1C471FFA8CFE07
:100F5000B1FBF7F007FB1015110C41EA054100FB4E
:100F60000EF58D4204FA03F408D91CEB010100F1DF
:100F7000FF382FD28D422DD902386144491B92B2DD
:100F8000B1FBF7F507FB151142EA014205FB0EF133
:100F9000914208D91CEB020205F1FF3816D29142AA
:100FA00014D9023D6244521A45EA004138E73146FD
:100FB000304608E73946E6E61046FBE64845A9D242
:100FC000B9EB020865EB0C0E013BA3E74546EAE7E7
:100FD0002B4694E74046D1E7D0467BE7023D62448A
:100FE00032E708460AE76444023842E7704700BF28
:100FF00080B584B000AF3B4600221A605A609A6008
:10100000DA60384B384A1A60364B4FF480325A60F7
:10101000344B00229A60334B01221A61314B00227B
:101020001A76304B012283F820202E4B01225A627F
:101030002C4B0022DA622B4B2C4A9A62294B00225D
:10104000DA60284B0422DA61264B002283F8302034
:10105000244B01225A61234802F026FD0346002B4F
:1010600001D001F00BF801233B6001237B600023DA
:10107000BB603B4619461B4802F0F8FE0346002BB6
:1010800001D000F0FBFF04233B6002237B603B4662
:101090001946144802F0EAFE0346002B01D000F086
:1010A000EDFF05233B6003237B603B4619460D485B
:1010B00002F0DCFE0346002B01D000F0DFFF062328
:1010C0003B6004237B603B461946064802F0CEFE97
:1010D0000346002B01D000F0D1FF00BF1037BD4602
:1010E00080BD00BF80030020002001400100000FF0
:1010F00080B58AB000AF786007F1140300221A604F
:101100005A609A60DA601A617B681B68174A9342DA
:1011100027D100233B61164B5B6C154A43F4807367
:101120005364134B5B6C03F480733B613B69002396
:10113000FB600F4B1B6B0E4A43F0010313630C4B18
:101140001B6B03F00103FB60FB6872237B610323CD
:10115000BB610023FB6107F114031946054803F046
:10116000B7FD00BF2837BD4680BD00BF002001404D
:10117000003802400000024080B487B000AF87ED25
:10118000050AC7ED040A87ED031AC7ED021A87EDB9
:10119000012A97ED057AD7ED047A37EE677AD7ED15
:1011A000036AD7ED047A36EEE76AD7ED016AD7ED28
:1011B000027A76EEE76AC6EE267AC7EE276AF0EE86
:1011C000667AB0EE670A1C37BD465DF8047B70474F
:1011D0002DE9B04396B000AF78613961FA60BB6029
:1011E00087ED010A07F11C0300221A605A609A6019
:1011F000DA60084BFB64084BBB644FF000037B6470
:10120000064B3B64002387F8523037E0002387F811
:1012100053302AE0000050430080B54300005C4397
:10122000D54802F085FC0521D34802F086FDD2485E
:1012300002F00EFE07EE900A97F853309B005833E9
:101240003B443C3B93ED007AF8EE677A97F85330D5
:1012500077EE277A9B0058333B443C3BC3ED007A42
:1012600097F85330013387F8533097F85330032BF6
:10127000D6D997F85230013387F8523097F8523068
:10128000092BC3D9BC4802F025FD97ED087AF2EE90
:10129000046AC7EE267AC7ED0F7AF86BFFF754F9A8
:1012A000A7A3D3E90023FFF7A7F902460B46104690
:1012B0001946FFF799FC0346FB63F86BFFF744F907
:1012C000A1A3D3E90023FFF797F902460B46104686
:1012D00019469FA3D3E90023FEF7D8FF02460B4629
:1012E00010461946FFF780FC02467B691A607B694D
:1012F000D3ED007AB2EE0C7AF4EEC77AF1EE10FA82
:1013000002DD7B699D4A1A607B69D3ED007AF5EEB8
:10131000C07AF1EE10FA03D57B694FF000021A6033
:1013200097ED077AF2EE046AC7EE267AC7ED0E7AD9
:10133000B86BFFF709F982A3D3E90023FFF75CF943
:1013400002460B4610461946FFF74EFC0346BB63A8
:10135000B86BFFF7F9F880A3D3E90023FFF776FA1B
:1013600002460B46104619464FF00002844BFFF729
:1013700043F902460B4610461946FFF735FC034673
:10138000BB63D7ED0E7AFDEEE77A17EE903AC3F124
:1013900064023B691A6097ED097AF2EE046AC7EEBF
:1013A000267AC7ED157A786DFFF7CEF864A3D3E9F6
:1013B0000023FFF721F902460B46104619464FF06D
:1013C0000002704BFFF718F902460B46104619460B
:1013D000FFF70AFC03467B653B6F7A6D1A6097ED59
:1013E000102AD7ED111A97ED121AD7ED130A97EDBF
:1013F000150AFFF7C1FE87ED150AD7ED157A9FEDA7
:10140000627AF4EEC77AF1EE10FA01DD5F4B7B658C
:10141000D7ED157AF5EEC07AF1EE10FA02D54FF05D
:1014200000037B65FB687A6D1A6097ED0A7AF2EE2D
:10143000046AC7EE267AC7ED0D7A786BFFF784F859
:101440003FA3D3E90023FFF7D7F802460B46104627
:101450001946FFF7C9FB03467B637868FFF774F80A
:101460004FF000024A4BFEF70FFF02460B461046B4
:1014700019463BA3D3E90023FFF7BEF802460B460B
:10148000104619464FF00002424BFEF7FFFE02469F
:101490000B4610461946FFF7A7FB03463B63D7ED03
:1014A0000D6A97ED0C7AC6EE877AC7ED0B7AF86A6B
:1014B000FFF74AF82CA3D3E90023FFF79DF8024673
:1014C0000B4614461D46F86AFFF73EF802460B46E7
:1014D00020462946FFF790F802460B4614461D4663
:1014E000F86AFFF731F802460B4620462946FFF717
:1014F00083F802460B4614461D46F86AFFF724F8A7
:101500001BA3D3E90023FFF777F802460B4690466A
:101510009946F86AFFF718F802460B4640464946D6
:10152000FFF76AF802460B4620462946FEF7ACFE56
:1015300002460B4614461D46F86AFFF705F82BE0F5
:10154000B4D934E70C684A3F87A757CA320417C09A
:101550008195438B6CA730406666666666660A4076
:101560007B14AE47E17A943F3D0AD7A370AD60404B
:10157000EC51B81E85FB6F408003002000006041E5
:101580000000594000408F40000075430000754343
:10159000000039400000F03F12A3D3E90023FFF719
:1015A0002BF802460B4620462946FEF76FFE024600
:1015B0000B46104619464FF00002094BFFF71CF886
:1015C00002460B4610461946FFF70EFB03467B63A7
:1015D00000BF5837BD46BDE8B08300BFAFF3008001
:1015E0000000E03F85EB51B81ECB8A4080B582B049
:1015F00000AF00237B601F4B1B6B1E4A43F480032C
:1016000013631C4B1B6B03F480037B607B6800231C
:101610003B60184B1B6B174A43F400131363154BC5
:101620001B6B03F400133B603B6800220021102079
:1016300002F015FF102002F02EFF002200211120E1
:1016400002F00DFF112002F026FF002200213A20B7
:1016500002F005FF3A2002F01EFF00220021462082
:1016600002F0FDFE462002F016FF00BF0837BD461F
:1016700080BD00BF0038024080B586B000AF4FF497
:1016800000737B600023BB603B1D1946034803F0D9
:101690001FFB00BF1837BD4680BD00BF00180240C9
:1016A00080B586B000AF4FF400737B600123BB6050
:1016B00002233B613B1D1946034803F009FB00BFB1
:1016C0001837BD4680BD00BF0018024080B500AF8E
:1016D000FFF7E6FF00224FF40071094803F0ACFC6D
:1016E00040F2EE2001F03AFF01224FF4007104486D
:1016F00003F0A2FC0F2001F031FF00BF80BD00BF4E
:101700000018024080B582B000AF0023FB71FFF7E4
:10171000B3FF05E0FB790133FB71012001F01EFFEF
:101720004FF40071154803F06FFC0346002B02D004
:10173000FB79C72BEED9FB79C72B01D9012319E01F
:101740000023FB7105E0FB790133FB71012001F0FF
:1017500005FF4FF40071094803F056FC0346002BC7
:1017600002D1FB79EF2BEED9FB79EF2B01D90223C4
:1017700000E0002318460837BD4680BD001802402F
:1017800080B584B000AF0346FB71FFF789FF0123EA
:10179000FB7331E0FB7903F00103BB73FB795B085A
:1017A000FB71BB7B002B12D000224FF40071164856
:1017B00003F042FC022001F0D1FE01224FF400713F
:1017C000114803F039FC3C2001F0C8FE11E0002272
:1017D0004FF400710C4803F02FFC3C2001F0BEFEDA
:1017E00001224FF40071084803F026FC022001F0AA
:1017F000B5FEFB7B0133FB73FB7B082BCAD900BF13
:1018000000BF1037BD4680BD0018024080B582B0D1
:1018100000AFFFF745FF00224FF40071124803F0BC
:101820000BFC022001F09AFE01224FF400710E48D9
:1018300003F002FCFFF720FF0C2001F08FFE4FF4B5
:101840000071094803F0E0FB0346002B02D001239E
:10185000FB7101E00023FB71322001F07FFEFB7978
:1018600018460837BD4680BD0018024080B582B0DA
:1018700000AF0023BB710123FB7110E0FFF7C6FF2F
:1018800003467B717B79DB015AB2BB795B08DBB223
:101890005BB213435BB2BB71FB790133FB71FB7924
:1018A000082BEBD9BB7918460837BD4680BD80B5FB
:1018B00000AFFFF70BFFFFF725FFCC20FFF760FF1E
:1018C0004420FFF75DFF00BF80BD000080B582B0FF
:1018D00000AFFFF7ECFFFFF7F9FEFFF713FFCC2097
:1018E000FFF74EFFBE20FFF74BFFFFF7BFFF03469A
:1018F000BB71FFF7BBFF03467B717B79702B08D967
:101900007B79DB437B71BB79DB43BB710023FB71CC
:1019100001E00123FB717B793B603B681B023B606C
:10192000BB793A6813443B603B6807EE903AF8EEA7
:10193000E77A17EE900AFEF707FE4FF000020B4B16
:10194000FEF75AFE02460B4610461946FFF704F909
:1019500003463B60FB79002B01D03B6801E03B680C
:101960005B4218460837BD4680BD00BF0000E43F1B
:1019700080B59CB000AF78600023FB6007F11003D6
:1019800060220021184607F0AEF807F10C037A68D0
:101990000D49184607F044F807F10C014FF0FF33EA
:1019A00064220A4804F069FE07F10C014FF0FF338E
:1019B0006422074804F061FE4FF4FA7002F050F818
:1019C00000BF7037BD4680BDA8C30008E4040020F6
:1019D000A004002080B59CB000AF7860396000237F
:1019E000FB6307F140032E220021184607F07BF825
:1019F0000023BB6007F10C032E220021184607F0DC
:101A000072F807F13C003B687A68214907F008F852
:101A100007F13C014FF0FF3332221E4804F02DFE47
:101A200007F13C014FF0FF3332221B4804F025FE42
:101A3000642002F015F807F1080141F288333222E0
:101A4000144804F0ACFE07F108031449184607F0E7
:101A500052F80346002B0BD001F02AFB07F10801D6
:101A60004FF0FF3332220C4804F007FE01230AE056
:101A700001F038FB07F108014FF0FF33322206482E
:101A800004F0FBFD002318467037BD4680BD00BF43
:101A9000B0C30008E4040020A0040020C8C300086C
:101AA00080B584B000AF0023FB73134A3B1D07CA07
:101AB00003C31A801148FFF75BFF1148FFF758FF77
:101AC00010491148FFF786FF0346FB73391D4FF09D
:101AD000FF330A220D4804F0D0FD0D48FFF748FF00
:101AE0000C48FFF745FF0C48FFF742FFFB7B184609
:101AF0001037BD4680BD00BF6CC40008D8C30008C5
:101B0000E0C30008E8C30008F4C30008A0040020F4
:101B1000F8C3000830C4000854C4000880B5A2B05F
:101B200004AFF860B96087ED010A3A6000237B6179
:101B300007F1180360220021184606F0D4FFD7ED04
:101B4000017AB2EE047A67EE877AFDEEE77A17EE55
:101B5000902AD7ED017AB2EE047A67EE877AFDEE2D
:101B6000E77A17EE901A07F114003B68029301918F
:101B70000092FB68BA680A4906F052FF07F11401A7
:101B800064236422074804F078FD07F114016423FC
:101B90006422054804F071FD00BF7837BD4680BD62
:101BA00078C40008E4040020A004002080B58AB0B6
:101BB00000AF07F1140300221A605A609A60DA60DD
:101BC0001A6100233B61424B1B6B414A43F02003E7
:101BD00013633F4B1B6B03F020033B613B69002306
:101BE000FB603B4B1B6B3A4A43F080031363384B5B
:101BF0001B6B03F08003FB60FB680023BB60344B6E
:101C00001B6B334A43F001031363314B1B6B03F02F
:101C10000103BB60BB6800237B602D4B1B6B2C4A10
:101C200043F0400313632A4B1B6B03F040037B60BC
:101C30007B6800233B60264B1B6B254A43F0020365
:101C40001363234B1B6B03F002033B603B680122D1
:101C50004FF400711F4803F0EFF900224FF4806148
:101C60001C4803F0E9F900224FF400711A4803F010
:101C7000E3F94FF4C0637B610123BB610023FB6187
:101C800000233B6207F114031946124803F020F8C1
:101C900001237B610023BB610223FB6107F1140375
:101CA00019460E4803F014F84FF400737B610123CA
:101CB000BB610123FB6102233B6207F11403194658
:101CC000054803F005F800BF2837BD4680BD00BFBA
:101CD0000038024000140240001802400000024098
:101CE00080B500AF124B134A1A60114B124A5A606A
:101CF0000F4B00229A600E4B0022DA600C4B4FF41F
:101D000080421A610A4B00225A61094B00229A61F3
:101D1000074B0022DA61064B00221A62044803F0E6
:101D2000BFF90346002B01D000F0A8F900BF80BD29
:101D3000C803002000540040801A060080B58AB015
:101D400000AF786007F1140300221A605A609A60AD
:101D5000DA601A617B681B68194A93422BD1002311
:101D60003B61184B1B6B174A43F002031363154B7F
:101D70001B6B03F002033B613B69C0237B611223B1
:101D8000BB610023FB6103233B6204237B6207F1F9
:101D9000140319460C4802F09BFF0023FB60094B1B
:101DA0001B6C084A43F400131364064B1B6C03F4CA
:101DB0000013FB60FB6800BF2837BD4680BD00BF35
:101DC00000540040003802400004024080B582B058
:101DD00000AF78600B467B807B680E4A934210D13F
:101DE0000D490E4806F087FE0346002B09D032222B
:101DF00000210A4806F077FE4FF40071084803F00E
:101E000034F932220549034804F06BFD00BF08375E
:101E1000BD4680BDE4040020BCC400081C040020B2
:101E20000014024090B58BB002AF0123FB61002388
:101E3000BB6100233B614FF00003FB604FF00003E8
:101E4000BB6001F09BFD00F0B1F8FFF7AFFEFFF7BC
:101E5000CDFBFFF745FF01F0BDFB01F0E5FB01F015
:101E600017FBFFF7C5F84FF47A7001F0F9FD00F0A9
:101E700027F900F079F900F029FA3222464947485B
:101E800004F02FFD4FF4FA6001F0EAFD00F06CF968
:101E9000FFF706FE0346FB75414B1B680133404AC2
:101EA0001360BB6907EE903AF8EEE77AF2EE046A47
:101EB00087EEA67A07F10C043A1D07F1100107F12D
:101EC00008003B460093B0EE470A2346FFF780F92F
:101ED0003B681846FEF738FB02460B46314806F0D1
:101EE0008DFDFFF7F3FCB861BA690021002001F015
:101EF00019F83B691A460021022001F099F8D7ED44
:101F0000027AB2EE047A67EE877AFDEEE77A17EE90
:101F1000902A0021042001F03FF9D7ED017AFDEE6F
:101F2000E77A17EE902A4021022001F0EFF8D7ED72
:101F3000007AFDEEE77A17EE902A4021042001F0A6
:101F4000E5F8322001F08CFD154B1968164B83FB28
:101F50000123DA10CB17D21A13469B0013449B00BF
:101F6000CA1A002A02D0FB69012B95D1FB7D002BF8
:101F700092D03B6997ED027AD7ED017AFDEEE77AD0
:101F800017EE902AB0EE470A1946B869FFF7C6FD6A
:101F90000023FB6180E700BF1C040020E404002054
:101FA00050040020C4C400086766666680B594B01B
:101FB00000AF07F1200330220021184606F093FD00
:101FC00007F10C0300221A605A609A60DA601A6105
:101FD0000023BB60274B1B6C264A43F080531364DD
:101FE000244B1B6C03F08053BB60BB6800237B60F9
:101FF000214B1B68204A43F4804313601E4B1B682F
:1020000003F480437B607B6802233B620123FB6215
:1020100010233B630223BB630023FB6308233B6461
:1020200050237B640223BB640423FB6407F1200379
:10203000184603F081FC0346002B01D000F01EF887
:102040000F23FB6002233B6100237B614FF480532D
:10205000BB610023FB6107F10C030221184603F06A
:10206000E3FE0346002B01D000F008F800BF503714
:10207000BD4680BD003802400070004080B400AF13
:1020800072B600BFFEE7000080B586B002AF03461F
:10209000FB710023BB8100233B73FB797B7307F14A
:1020A0000C024FF0FF33009302237821034803F022
:1020B0003BF900BF1037BD4680BD00BFC8030020FC
:1020C00080B500AF4FF47A7001F0CAFCAE20FFF784
:1020D000DBFFD520FFF7D8FF8020FFF7D5FFA82032
:1020E000FFF7D2FF3F20FFF7CFFFD320FFF7CCFF52
:1020F0000020FFF7C9FF4020FFF7C6FF8D20FFF744
:10210000C3FF1420FFF7C0FF2020FFF7BDFF022010
:10211000FFF7BAFFA120FFF7B7FFC820FFF7B4FF12
:10212000DA20FFF7B1FF1220FFF7AEFF8120FFF7A3
:10213000ABFFCF20FFF7A8FFD920FFF7A5FFF120C5
:10214000FFF7A2FFDB20FFF79FFF3020FFF79CFF88
:10215000A420FFF799FFA620FFF796FFAF20FFF717
:1021600093FF00BF80BD000080B5A4B002AF002384
:1021700087F8873025E097F88730503BDBB2184668
:10218000FFF782FF0020FFF77FFF1020FFF77CFFA3
:1021900000237B6007F108037D220021184606F02A
:1021A000A2FC40233B713A1D4FF0FF330093812383
:1021B0007821084803F0B8F897F88730013387F89A
:1021C000873097F88730072BD5D900BF00BF8837F5
:1021D000BD4680BDC803002080B5A6B002AF03464F
:1021E000FB71FB79503BDBB21846FFF74DFF002037
:1021F000FFF74AFF1020FFF747FF0023FB6007F1BE
:1022000010037D220021184606F06DFC40233B732D
:1022100007F10C024FF0FF3300938123782103482C
:1022200003F082F800BF9037BD4680BDC803002090
:1022300080B485B000AF0346B9607A60FB73FB7B66
:1022400003F00F03DAB2BB681A70FB7B1B09DBB229
:102250005BB243F010035BB2DAB27B681A7000BF66
:102260001437BD465DF8047B7047000080B588B028
:1022700002AFBA607B600346FB730B46BB7307F18A
:10228000160207F11701BB7B1846FFF7D1FFFB7B56
:10229000503BDBB21846FFF7F7FEFB7D1846FFF711
:1022A000F3FEBB7D1846FFF7EFFE7B689BB24FF055
:1022B000FF320092BA687821034803F035F800BF76
:1022C0001837BD4680BD00BFC8030020B0B5B4B00C
:1022D00000AF214B07F1AC041D460FCD0FC40FCD4D
:1022E0000FC42B6823701D4B07F188041D460FCDCA
:1022F0000FC40FCD0FC42B682370194A07F1440394
:1023000011464122184606F084FC164A3B46114607
:102310004122184606F07DFC07F1AC0221232F2153
:102320000220FFF7A3FF07F1880221232F210320BA
:10233000FFF79CFF07F1440241231F210420FFF710
:1023400095FF3A4641231F210520FFF78FFF00BF6D
:10235000D037BD46B0BD00BFCCC40008F0C40008F3
:1023600014C5000858C5000880B5A6B002AF3A6091
:102370001A460346FB710B46BB7113467B71002363
:1023800087F88D300023BB6007F10C037D2200210C
:10239000184606F0A8FB40233B72FB79072B00F29E
:1023A000C88197F90630002BC0F2C381B7F8983086
:1023B000B3F5807F00F2BD81FB79503BFB7107F1E3
:1023C0008B0207F18C01BB791846FFF731FF7B794F
:1023D000002B00F0D780002387F88E3026E0002302
:1023E00087F88F3019E097F88F2097F88E301344D4
:1023F0001A463B681A4497F88D30013312789033AF
:102400003B4403F8882C97F88D30013387F88D30E2
:1024100097F88F30013387F88F3097F88F30072B7C
:10242000E1D997F88E30103387F88E3097F88E30D8
:102430009BB2B7F898209A42D1D8FB791846FFF79B
:1024400023FE97F88C301846FFF71EFE97F88B3066
:102450001846FFF719FEBB79B7F89820520892B2D8
:102460001344802B0EDDBB799BB2C3F180039BB27A
:1024700007F108024FF0FF3100917821AF4802F0D8
:1024800053FF0CE0B7F898305B089BB207F10802E5
:102490004FF0FF3100917821A84802F045FF07F185
:1024A000080381220021184606F01DFB002387F84F
:1024B0008D3040233B72082387F88E3026E00023BE
:1024C00087F88F3019E097F88F2097F88E301344F3
:1024D0001A463B681A4497F88D30013312789033CE
:1024E0003B4403F8882C97F88D30013387F88D3002
:1024F00097F88F30013387F88F3097F88F30072B9C
:10250000E1D997F88E30103387F88E3097F88E30F7
:102510009BB2B7F898209A42D1D8FB790133DBB24D
:102520001846FFF7B1FD97F88C301846FFF7ACFD61
:1025300097F88B301846FFF7A7FDBB79B7F89820BE
:10254000520892B21344802B0EDDBB799BB2C3F1CB
:1025500080039BB207F108024FF0FF310091782110
:10256000764802F0E1FEE5E0B7F898305B089BB2F0
:1025700007F108024FF0FF31009178216F4802F017
:10258000D3FED7E0002387F88E3026E0002387F8BB
:102590008F3019E097F88F2097F88E3013441A4641
:1025A0003B681A4497F88D300133127890333B44DE
:1025B00003F8882C97F88D30013387F88D3097F821
:1025C0008F30013387F88F3097F88F300F2BE1D998
:1025D00097F88E30203387F88E3097F88E309BB284
:1025E000B7F898209A42D1D8FB791846FFF74CFDEE
:1025F00097F88C301846FFF747FD97F88B30184650
:10260000FFF742FDBB79B7F89820520892B2134405
:10261000802B0EDDBB799BB2C3F180039BB207F127
:1026200008024FF0FF3100917821444802F07CFE0F
:102630000CE0B7F898305B089BB207F108024FF046
:10264000FF31009178213D4802F06EFE07F108034A
:1026500081220021184606F046FA002387F88D30C3
:1026600040233B72102387F88E3026E0002387F842
:102670008F3019E097F88F2097F88E3013441A4660
:102680003B681A4497F88D300133127890333B44FD
:1026900003F8882C97F88D30013387F88D3097F840
:1026A0008F30013387F88F3097F88F300F2BE1D9B7
:1026B00097F88E30203387F88E3097F88E309BB2A3
:1026C000B7F898209A42D1D8FB790133DBB218468B
:1026D000FFF7DAFC97F88C301846FFF7D5FC97F82F
:1026E0008B301846FFF7D0FCBB79B7F8982052081A
:1026F00092B21344802B0EDDBB799BB2C3F18003F1
:102700009BB207F108024FF0FF31009178210B488E
:1027100002F00AFE0EE0B7F898305B089BB207F1B2
:1027200008024FF0FF3100917821044802F0FCFDCF
:1027300000E000BF9037BD4680BD00BFC803002049
:1027400080B58AB002AF3A601A460346FB710B4669
:10275000BB7113467B710023FB6007F1100300225D
:102760001A605A609A601A7340233B73FB79072BF7
:1027700000F2BF8097F90630002BC0F2BA80FB79D7
:10278000503BFB7107F11D0207F11E01BB79184692
:10279000FFF74EFD7B79002B55D00023FB770CE033
:1027A000FB7F3A681A44FB7F0133127820333B44A5
:1027B00003F8142CFB7F0133FB77FB7F072BEFD94A
:1027C000FB791846FFF760FCBB7F1846FFF75CFCFF
:1027D0007B7F1846FFF758FC07F10C024FF0FF33E0
:1027E000009311237821454802F09EFD0023FB77DA
:1027F0000DE0FB7F08333A681A44FB7F01331278FF
:1028000020333B4403F8142CFB7F0133FB77FB7F21
:10281000072BEED9FB790133DBB21846FFF734FC06
:10282000BB7F1846FFF730FC7B7F1846FFF72CFC78
:1028300007F10C024FF0FF330093112378212F484A
:1028400002F072FD56E00023FB770CE0FB7F3A6854
:102850001A44FB7F0133127820333B4403F8142CD5
:10286000FB7F0133FB77FB7F0F2BEFD9FB791846FA
:10287000FFF70AFCBB7F1846FFF706FC7B7F184674
:10288000FFF702FC07F10C024FF0FF330093112316
:1028900078211A4802F048FD0023FB770DE0FB7F0A
:1028A00010333A681A44FB7F0133127820333B44DB
:1028B00003F8142CFB7F0133FB77FB7F0F2BEED942
:1028C000FB790133DBB21846FFF7DEFBBB7F18460E
:1028D000FFF7DAFB7B7F1846FFF7D6FB07F10C0208
:1028E0004FF0FF33009311237821044802F01CFDC0
:1028F00000E000BF2037BD4680BD00BFC8030020F8
:1029000090B587B000AF03460A46FB711346BB7112
:10291000084B07F108040FCB84E80F0007F1080209
:10292000B979F8790123FFF70BFF00BF1C37BD46CB
:1029300090BD00BF9CC5000890B587B000AF0346AE
:102940000A46FB711346BB71084B07F108040FCB15
:1029500084E80F0007F10802B979F8790123FFF73D
:10296000EFFE00BF1C37BD4690BD00BFACC50008E0
:1029700090B587B000AF03460A46FB711346BB71A2
:10298000084B07F108040FCB84E80F0007F1080299
:10299000B979F8790123FFF7D3FE00BF1C37BD4694
:1029A00090BD00BFBCC5000890B587B000AF03461E
:1029B0000A46FB711346BB71084B07F108040FCBA5
:1029C00084E80F0007F10802B979F8790123FFF7CD
:1029D000B7FE00BF1C37BD4690BD00BFCCC5000888
:1029E00090B587B000AF03460A46FB711346BB7132
:1029F000084B07F108040FCB84E80F0007F1080229
:102A0000B979F8790123FFF79BFE00BF1C37BD465B
:102A100090BD00BFDCC5000890B587B000AF03468D
:102A20000A46FB711346BB71084B07F108040FCB34
:102A300084E80F0007F10802B979F8790123FFF75C
:102A40007FFE00BF1C37BD4690BD00BFECC500082F
:102A500090B587B000AF03460A46FB711346BB71C1
:102A6000084B07F108040FCB84E80F0007F10802B8
:102A7000B979F8790123FFF763FE00BF1C37BD4623
:102A800090BD00BFFCC5000890B587B000AF0346FD
:102A90000A46FB711346BB71084B07F108040FCBC4
:102AA00084E80F0007F10802B979F8790123FFF7EC
:102AB00047FE00BF1C37BD4690BD00BF0CC60008D6
:102AC00090B587B000AF03460A46FB711346BB7151
:102AD000084B07F108040FCB84E80F0007F1080248
:102AE000B979F8790123FFF72BFE00BF1C37BD46EB
:102AF00090BD00BF1CC6000890B587B000AF03466C
:102B00000A46FB711346BB71084B07F108040FCB53
:102B100084E80F0007F10802B979F8790123FFF77B
:102B20000FFE00BF1C37BD4690BD00BF2CC600087D
:102B300090B587B000AF03460A46FB711346BB71E0
:102B4000084B07F108040FCB84E80F0007F10802D7
:102B5000B979F8790123FFF7F3FD00BF1C37BD46B3
:102B600090BD00BF3CC6000890B587B000AF0346DB
:102B70000A46FB711346BB71084B07F108040FCBE3
:102B800084E80F0007F10802B979F8790123FFF70B
:102B9000D7FD00BF1C37BD4690BD00BF4CC6000826
:102BA00090B587B000AF03460A46FB711346BB7170
:102BB000084B07F108040FCB84E80F0007F1080267
:102BC000B979F8790123FFF7BBFD00BF1C37BD467B
:102BD00090BD00BF5CC6000890B587B000AF03464B
:102BE0000A46FB711346BB71084B07F108040FCB73
:102BF00084E80F0007F10802B979F8790123FFF79B
:102C00009FFD00BF1C37BD4690BD00BF6CC60008CD
:102C100080B582B000AF0346FB710B46BB71134613
:102C20007B717B79092B5AD87B79002B05D1BA7936
:102C3000FB7911461846FFF763FE7B79012B05D11E
:102C4000BA79FB7911461846FFF776FE7B79022B9D
:102C500005D1BA79FB7911461846FFF789FE7B79D1
:102C6000032B05D1BA79FB7911461846FFF79CFE74
:102C70007B79042B05D1BA79FB7911461846FFF709
:102C8000AFFE7B79052B05D1BA79FB791146184641
:102C9000FFF7C2FE7B79062B05D1BA79FB79114685
:102CA0001846FFF7D5FE7B79072B05D1BA79FB795A
:102CB00011461846FFF7E8FE7B79082B05D1BA7953
:102CC000FB7911461846FFF7FBFE7B79092B07D1EC
:102CD000BA79FB7911461846FFF70EFF00E000BFF6
:102CE0000837BD4680BD000080B586B000AF034602
:102CF0003A60FB710B46BB713B68224A82FB0312B0
:102D00005211DB17D31A7B613B681F4A82FB031207
:102D10009210DB17D21A1C4B83FB02139910D317A6
:102D2000C91A0B469B000B445B00D31A3B613A68FF
:102D3000154B83FB02139910D317C91A0B469B003E
:102D40000B445B00D31AFB607B69DAB2B979FB797B
:102D50001846FFF75DFFBB790833D9B23B69DAB299
:102D6000FB791846FFF754FFBB791033D9B2FB68E3
:102D7000DAB2FB791846FFF74BFF00BF1837BD46A4
:102D800080BD00BF1F85EB516766666680B586B063
:102D900000AF03463A60FB710B46BB713B68002BEA
:102DA000B8BF5B423B603A68374B83FB0213991014
:102DB000D317C91A0B469B000B445B00D31A7B61E7
:102DC0003B68314A82FB03129210DB17D21A2E4B5A
:102DD00083FB02139910D317C91A0B469B000B44AF
:102DE0005B00D31A3B613B68284A82FB03125211F5
:102DF000DB17D31AFB60FB68002B21D0FB68DAB22B
:102E0000B979FB791846FFF703FFBB790833D9B2CC
:102E10003B69DAB2FB791846FFF7FAFEBB7910334B
:102E2000DAB2FB7911461846FFF782FEBB791833F8
:102E3000D9B27B69DAB2FB791846FFF7E9FE1FE0E9
:102E40003B69DAB2B979FB791846FFF7E1FEBB7945
:102E50000833DAB2FB7911461846FFF769FEBB79F1
:102E60001033D9B27B69DAB2FB791846FFF7D0FE8E
:102E7000BB791833DAB2FB7911461846FFF790FE9A
:102E800000BF1837BD4680BD676666661F85EB517B
:102E900080B584B000AF03463A60FB710B46BB714E
:102EA0003B68632B38DC3A681D4B83FB0213991097
:102EB000D317C91A0B469B000B445B00D31AFB6067
:102EC0003B68174A82FB03129210DB17D31ABB60D0
:102ED000BB68002B10D0BB68DAB2B979FB79184611
:102EE000FFF796FEBB790833D9B2FB68DAB2FB79FB
:102EF0001846FFF78DFE10E0FB68DAB2B979FB796E
:102F00001846FFF785FEBB790833DAB2FB79114624
:102F10001846FFF745FE00E000BF1037BD4680BDF4
:102F200067666666B0B592B000AF03463A60FB7163
:102F30000B46BB713C4B07F128041D460FCD0FC457
:102F400095E80F0084E80F00384B07F108041D4690
:102F50000FCD0FC495E80F0084E80F0007F1280299
:102F6000B979F8790023FFF7EBFBBB791033DAB2BC
:102F7000FB7911461846FFF72FFE3B68002B19DD41
:102F8000BB791833D9B2FB793A681846FFF7FEFED1
:102F9000BB793833D9B207F10802F8790023FFF77B
:102FA000CFFBBB794833DAB2FB7911461846FFF7FD
:102FB000F7FD35E03B68002B19DABB791833DAB23C
:102FC000FB7911461846FFF7CFFDBB792033D9B204
:102FD000FB793A681846FFF7D9FEBB794033D9B27E
:102FE00007F10802F8790023FFF7AAFB18E0BB7984
:102FF0002033D9B2FB7900221846FFF7C7FEBB7910
:103000003833D9B207F10802F8790023FFF798FBAB
:10301000BB794833DAB2FB7911461846FFF7C0FD99
:1030200000BF4837BD46B0BD7CC600089CC600083E
:10303000B0B58EB000AF03463A60FB710B46BB7172
:10304000194B07F118041D460FCD0FC495E80F006A
:1030500084E80F00154B07F108040FCB84E80F003C
:1030600007F11802B979F8790023FFF769FBBB79FA
:103070001033DAB2FB7911461846FFF7ADFDBB7984
:103080001833D9B2FB793A681846FFF701FFBB79CC
:103090002833D9B207F10802F8790123FFF750FB72
:1030A00000BF3837BD46B0BDBCC60008DCC600084E
:1030B00080B500AF0620FFF78FF80720FFF78CF8E8
:1030C0007123064A00210620FFF7D0F87123044A35
:1030D00000210720FFF7CAF800BF80BD00000020D4
:1030E0007400002080B500AF5123064A002106205D
:1030F000FFF7BCF85123044A00210720FFF7B6F878
:1031000000BF80BDE80000203C010020B0B594B0B5
:1031100002AF03463A60FB710B46BB711C4B07F1D3
:1031200028041D460FCD0FC495E80F0084E80F005A
:10313000184B07F108041D460FCD0FC495E80F008A
:1031400084E80F0007F12802B979F8790023FFF726
:10315000F7FABB791033DAB2FB7911461846FFF75C
:103160003BFDBB791833D9B2FB793A681846FFF7B3
:10317000BBFDBB793033D9B207F10802F8792023BF
:1031800000930123FFF7F0F800BF4837BD46B0BDFC
:10319000ECC600080CC70008B0B58CB002AF0346FF
:1031A0003A60FB710B46BB71134B07F108041D46D7
:1031B0000FCD0FC495E80F0084E80F0007F1080257
:1031C000B979F879202300930123FFF7CDF8BB7973
:1031D0001033DAB2FB7911461846FFF7FDFCBB79D4
:1031E0001833D9B2FB793A681846FFF7CFFD00BF14
:1031F0002837BD46B0BD00BF2CC7000880B483B0DF
:1032000000AF00237B60104B5B6C0F4A43F480439C
:1032100053640D4B5B6C03F480437B607B6800233D
:103220003B60094B1B6C084A43F080531364064B08
:103230001B6C03F080533B603B6800BF0C37BD46FE
:103240005DF8047B704700BF0038024080B400AFD7
:10325000FEE780B400AFFEE780B400AFFEE780B4C5
:1032600000AFFEE780B400AFFEE780B400AF00BF60
:10327000BD465DF8047B704780B400AF00BFBD461B
:103280005DF8047B704780B400AF00BFBD465DF8B9
:10329000047B704780B500AF00F0C2FB00BF80BD6B
:1032A00080B500AF024801F0A9FA00BF80BD00BFA1
:1032B000E805002080B500AF024801F09FFA00BF8A
:1032C00080BD00BF4806002080B500AF024803F073
:1032D0006DFB00BF80BD00BFA004002080B500AF23
:1032E000024803F063FB00BF80BD00BFE404002080
:1032F00080B500AF024801F081FA00BF80BD00BF79
:103300002805002080B500AF024801F077FA00BF21
:1033100080BD00BF8805002080B400AF012318469F
:10332000BD465DF8047B704780B582B000AF786021
:10333000396005F041FC034616221A604FF0FF3356
:1033400018460837BD4680BD80B582B000AF7860B2
:103350004FF0FF317868FFF7E7FFFEE780B586B0F2
:1033600000AFF860B9607A6000237B610AE0AFF3D8
:1033700000800146BB685A1CBA60CAB21A707B69E9
:1033800001337B617A697B689A42F0DB7B6818467F
:103390001837BD4680BD80B483B000AF78604FF071
:1033A000FF3318460C37BD465DF8047B704780B488
:1033B00083B000AF786039603B684FF400525A60C8
:1033C000002318460C37BD465DF8047B704780B477
:1033D00083B000AF7860012318460C37BD465DF816
:1033E000047B704780B485B000AFF860B9607A6044
:1033F000002318461437BD465DF8047B7047000073
:1034000080B586B000AF7860144A154BD31A7B6143
:103410007B693B61134B1B68002B02D1114B124A95
:103420001A60104B1A687B6813443A699A4207D2B3
:1034300005F0C2FB03460C221A604FF0FF3309E08F
:10344000084B1B68FB60074B1A687B681344054AEE
:103450001360FB6818461837BD4680BD0000022087
:103460000004000054040020F807002080B400AFDE
:10347000064BD3F88830054A43F47003C2F888300D
:1034800000BFBD465DF8047B704700BF00ED00E063
:1034900080B582B000AF3B4600221A605A60154BDF
:1034A000154A1A60134B6B225A60124B00229A6025
:1034B000104B4FF6FF72DA600E4B00229A610D48F6
:1034C00002F092FE0346002B01D0FEF7D7FD002349
:1034D0003B6000237B603B461946064803F004F836
:1034E0000346002B01D0FEF7C9FD00BF0837BD46DB
:1034F00080BD00BF580400200010004080B485B09B
:1035000000AF78607B681B680B4A93420DD10023A3
:10351000FB600A4B1B6C094A43F010031364074B12
:103520001B6C03F01003FB60FB6800BF1437BD4643
:103530005DF8047B704700BF001000400038024077
:1035400080B400AF044B1B685B6A9BB21846BD4653
:103550005DF8047B704700BF5804002080B584B03C
:1035600000AF0346FB80FFF7EBFF0346FB81FB88C0
:10357000BB810C4802F088FE00BFFFF7E1FF034665
:103580001A46FB89D21ABB899A42F6DB054802F03B
:10359000E3FE044B1B6800225A6200BF1037BD4691
:1035A00080BD00BF5804002080B584B000AFF86033
:1035B000B9607A607B689AB24FF6FF73B9680448C5
:1035C00003F05BF87B6818461037BD4680BD00BF2E
:1035D000A004002080B500AF114B124A1A60104BB6
:1035E0004FF4E1325A600E4B00229A600C4B0022DD
:1035F000DA600B4B00221A61094B0C225A61084B0E
:1036000000229A61064B0022DA61054802F0E8FFC9
:103610000346002B01D0FEF731FD00BF80BD00BF87
:10362000A00400200010014080B500AF114B124AE9
:103630001A60104B4FF4E1325A600E4B00229A6030
:103640000C4B0022DA600B4B00221A61094B0C2252
:103650005A61084B00229A61064B0022DA61054844
:1036600002F0BEFF0346002B01D0FEF707FD00BFAE
:1036700080BD00BFE40400200044004080B58CB051
:1036800000AF786007F11C0300221A605A609A604C
:10369000DA601A617B681B68974A934240F0928017
:1036A0000023BB61954B5B6C944A43F01003536459
:1036B000924B5B6C03F01003BB61BB6900237B6121
:1036C0008E4B1B6B8D4A43F0010313638B4B1B6BBB
:1036D00003F001037B617B694FF4C063FB6102234C
:1036E0003B6200237B620323BB620723FB6207F17B
:1036F0001C031946824801F0EBFA824B824A1A6099
:10370000804B4FF000625A607E4B00229A607D4BE6
:103710000022DA607B4B4FF480621A61794B002201
:103720005A61784B00229A61764B0022DA61754B20
:1037300000221A62734B00225A62724800F0C6FEE1
:103740000346002B01D0FEF799FC7B686D4A9A6313
:103750006C4A7B6893636D4B6D4A1A606B4B4FF0FC
:1037600000625A60694B40229A60684B0022DA601E
:10377000664B4FF480621A61644B00225A61634BBE
:1037800000229A61614B0022DA61604B00221A62CA
:103790005E4B00225A625D4800F098FE0346002B03
:1037A00001D0FEF76BFC7B68584A5A63574A7B6826
:1037B000936300220021252000F051FE252000F017
:1037C0006AFE95E07B681B68524A934240F0908005
:1037D00000233B61494B1B6C484A43F4003313649C
:1037E000464B1B6C03F400333B613B690023FB60D9
:1037F000424B1B6B414A43F0010313633F4B1B6B6E
:1038000003F00103FB60FB680C23FB6102233B62B6
:1038100000237B620323BB620723FB6207F11C03C7
:103820001946374801F054FA3B4B3C4A1A603A4B70
:103830004FF000625A60384B00229A60364B0022EB
:10384000DA60354B4FF480621A61334B00225A61C3
:10385000314B00229A61304B0022DA612E4B00225C
:103860001A622D4B00225A622B4800F02FFE0346AD
:10387000002B01D0FEF702FC7B68274A9A63264A98
:103880007B689363264B274A1A60254B4FF00062F2
:103890005A60234B40229A60214B0022DA60204B71
:1038A0004FF480621A611E4B00225A611C4B0022A9
:1038B0009A611B4B0022DA61194B00221A62184BE5
:1038C00000225A62164800F001FE0346002B01D088
:1038D000FEF7D4FB7B68124A5A63114A7B689363F4
:1038E00000220021262000F0BAFD262000F0D3FDA2
:1038F00000BF3037BD4680BD001001400038024097
:103900000000024028050020406402408805002095
:10391000B864024000440040E8050020886002408E
:1039200048060020A0600240DFF834D00D480E4960
:103930000E4A002302E0D458C4500433C4188C4209
:10394000F9D30B4A0B4C002301E013600432A2426E
:10395000FBD3FFF78BFD05F035F9FEF763FA7047EF
:10396000000002200000002064030020A8CB000813
:1039700064030020F8070020FEE7000080B500AFD8
:103980000E4B1B680D4A43F4007313600B4B1B680E
:103990000A4A43F480631360084B1B68074A43F4E8
:1039A00080731360032000F04FFD0F2000F008F833
:1039B000FFF724FC0023184680BD00BF003C0240F6
:1039C00080B582B000AF7860124B1A68124B1B783A
:1039D00019464FF47A73B3FBF1F3B2FBF3F31846D5
:1039E00000F067FD0346002B01D001230EE07B6849
:1039F0000F2B0AD8002279684FF0FF3000F02FFD1E
:103A0000064A7B681360002300E00123184608374C
:103A1000BD4680BD90010020980100209401002047
:103A200080B400AF064B1B781A46064B1B68134444
:103A3000044A136000BFBD465DF8047B704700BFB9
:103A400098010020A806002080B400AF034B1B683B
:103A50001846BD465DF8047B704700BFA8060020ED
:103A600080B584B000AF7860FFF7EEFFB8607B6888
:103A7000FB60FB68B3F1FF3F05D00A4B1B781A4689
:103A8000FB681344FB6000BFFFF7DEFF0246BB6824
:103A9000D31AFA689A42F7D800BF00BF1037BD4664
:103AA00080BD00BF9801002080B584B000AF786071
:103AB0000023FB737B68002B01D1012333E07B687B
:103AC0001B6C002B09D17868FDF712FB7B68002284
:103AD0005A647B68002283F83C207B681B6C03F0EF
:103AE0001003002B18D17B681B6C23F4885323F040
:103AF000020343F002027B681A64786800F0D8FA87
:103B00007B6800225A647B681B6C23F0030343F03C
:103B100001027B681A6401E00123FB737B680022C9
:103B200083F83C20FB7B18461037BD4680BD000063
:103B300080B485B000AF78600023BB607B6893F8E9
:103B40003C30012B01D10223B2E07B68012283F8D3
:103B50003C207B681B689B6803F00103012B18D095
:103B60007B681B689A687B681B6842F001029A6058
:103B7000524B1B68524AA2FB03239A0C13465B006C
:103B80001344BB6002E0BB68013BBB60BB68002B19
:103B9000F9D17B681B689B6803F00103012B7AD184
:103BA0007B681B6C23F4E06323F0010343F4807211
:103BB0007B681A647B681B685B6803F48063002B76
:103BC00007D07B681B6C23F4405343F480527B681E
:103BD0001A647B681B6C03F48053B3F5805F06D1D5
:103BE0007B685B6C23F006027B685A6402E07B68AA
:103BF00000225A647B68002283F83C20314BFB6032
:103C00007B681B686FF022021A60FB685B6803F038
:103C10001F03002B2AD17B681B682B4A934215D0C7
:103C20007B681B68294A934205D1264B5B6803F0E9
:103C30001F03002B0AD07B681B68254A934236D1AC
:103C4000204B5B6803F01003002B30D17B681B68AE
:103C50009B6803F04053002B29D17B681B689A684E
:103C60007B681B6842F080429A6020E07B681B689A
:103C7000154A93421BD17B681B689B6803F0405335
:103C8000002B14D17B681B689A687B681B6842F024
:103C900080429A600BE07B681B6C43F010027B68EB
:103CA0001A647B685B6C43F001027B685A640023F2
:103CB00018461437BD465DF8047B7047900100201C
:103CC00083DE1B430023014000200140002101400E
:103CD0000022014080B483B000AF78607B6893F825
:103CE0003C30012B01D1022321E07B68012283F8C3
:103CF0003C207B681B689A687B681B6822F0010285
:103D00009A607B681B689B6803F00103002B09D154
:103D10007B681B6C23F4885323F0010343F00102FA
:103D20007B681A647B68002283F83C2000231846D5
:103D30000C37BD465DF8047B704780B584B000AF9A
:103D4000786039600023FB607B681B689B6803F424
:103D50008063B3F5806F13D17B681B689B6803F4A5
:103D60008073B3F5807F0BD17B681B6C43F020021E
:103D70007B681A647B68002283F83C20012363E09F
:103D8000FFF762FEF86021E03B68B3F1FF3F1DD012
:103D90003B68002B07D0FFF757FE0246FB68D31A9B
:103DA0003A689A4212D27B681B681B6803F00203D0
:103DB000022B0BD07B681B6C43F004027B681A64F7
:103DC0007B68002283F83C2003233DE07B681B686E
:103DD0001B6803F00203022BD6D17B681B686FF0CF
:103DE00012021A607B681B6C43F400727B681A64D1
:103DF0007B681B689B6803F04053002B23D17B68D2
:103E00001B7E002B1FD17B681B68DB6A03F47003E9
:103E1000002B06D07B681B689B6803F48063002B33
:103E200011D17B681B6C23F480727B681A647B68F9
:103E30001B6C03F48053002B05D17B681B6C43F093
:103E400001027B681A64002318461037BD4680BD06
:103E500080B483B000AF78607B681B68DB6C184669
:103E60000C37BD465DF8047B7047000080B485B018
:103E700000AF786039600023BB607B6893F83C300A
:103E8000012B01D1022305E17B68012283F83C204C
:103E90003B681B68092B25D97B681B68D9683B6880
:103EA0001B689BB21A4613465B0013441E3B072255
:103EB00002FA03F3DA437B681B680A40DA607B6826
:103EC0001B68D9683B689A683B681B689BB21846B8
:103ED00003465B0003441E3B9A407B681B680A4311
:103EE000DA6022E07B681B6819693B681B689BB23B
:103EF0001A4613465B001344072202FA03F3DA431F
:103F00007B681B680A401A617B681B6819693B68FB
:103F10009A683B681B689BB2184603465B000344E3
:103F20009A407B681B680A431A613B685B68062BF2
:103F300024D87B681B68596B3B685A6813469B0002
:103F40001344053B1F2202FA03F3DA437B681B6824
:103F50000A405A637B681B68596B3B681B689BB2BD
:103F600018463B685A6813469B001344053B00FA09
:103F700003F27B681B680A435A634CE03B685B684A
:103F80000C2B24D87B681B68196B3B685A68134656
:103F90009B001344233B1F2202FA03F3DA437B689E
:103FA0001B680A401A637B681B68196B3B681B68B7
:103FB0009BB218463B685A6813469B001344233B48
:103FC00000FA03F27B681B680A431A6323E07B68EC
:103FD0001B68D96A3B685A6813469B001344413BEF
:103FE0001F2202FA03F3DA437B681B680A40DA6295
:103FF0007B681B68D96A3B681B689BB218463B68A4
:104000005A6813469B001344413B00FA03F27B6855
:104010001B680A43DA62224BFB607B681B68214AFB
:10402000934209D13B681B68122B05D1FB685B6882
:1040300043F48002FB685A607B681B68194A93420C
:1040400023D13B681B68102B03D03B681B68112BE6
:104050001BD1FB685B6843F40002FB685A603B6855
:104060001B68102B11D1104B1B68104AA2FB0323B5
:104070009A0C13469B0013445B00BB6002E0BB68D4
:10408000013BBB60BB68002BF9D17B68002283F841
:104090003C20002318461437BD465DF8047B70476A
:1040A00000230140002001409001002083DE1B43DB
:1040B00080B485B000AF7860794BFB60FB685B68CB
:1040C00023F44032FB685A60FB685A687B685B687F
:1040D0001A43FB685A607B681B685A687B681B68D8
:1040E00022F480725A607B681B6859687B681B6980
:1040F0001A027B681B680A435A607B681B685A680F
:104100007B681B6822F040725A607B681B685968A4
:104110007B689A687B681B680A435A607B681B68E7
:104120009A687B681B6822F400629A607B681B684F
:1041300099687B68DA687B681B680A439A607B68C9
:104140009B6A584A934222D07B681B689A687B68B6
:104150001B6822F070629A607B681B6899687B68B4
:104160009A6A7B681B680A439A607B681B689A6836
:104170007B681B6822F040529A607B681B689968D4
:104180007B68DA6A7B681B680A439A600FE07B6889
:104190001B689A687B681B6822F070629A607B6873
:1041A0001B689A687B681B6822F040529A607B68A3
:1041B0001B689A687B681B6822F002029A607B6821
:1041C0001B6899687B681B7E5A007B681B680A43E2
:1041D0009A607B6893F82030002B1BD07B681B68AB
:1041E0005A687B681B6842F400625A607B681B68EF
:1041F0005A687B681B6822F460425A607B681B68BF
:1042000059687B685B6A013B5A037B681B680A43F9
:104210005A6007E07B681B685A687B681B6822F459
:1042200000625A607B681B68DA6A7B681B6822F44C
:104230007002DA627B681B68D96A7B68DB69013BC4
:104240001A057B681B680A43DA627B681B689A68F8
:104250007B681B6822F400729A607B681B6899680F
:104260007B6893F830305A027B681B680A439A6077
:104270007B681B689A687B681B6822F480629A607E
:104280007B681B6899687B685B699A027B681B681E
:104290000A439A6000BF1437BD465DF8047B70473F
:1042A000002301400100000F80B485B000AF7860AA
:1042B0007B6803F00703FB600C4BDB68BB60BA68EC
:1042C0004FF6FF031340BB60FB681A02BB68134341
:1042D00043F0BF6343F40033BB60044ABB68D36060
:1042E00000BF1437BD465DF8047B704700ED00E069
:1042F00080B400AF044BDB681B0A03F007031846C9
:10430000BD465DF8047B704700ED00E080B483B0EB
:1043100000AF0346FB7197F90730002B0BDBFB79ED
:1043200003F01F02074997F907305B09012000FAE3
:1043300002F241F8232000BF0C37BD465DF8047B34
:10434000704700BF00E100E080B483B000AF0346D7
:104350003960FB7197F90730002B0ADB3B68DAB252
:104360000C4997F907301201D2B20B4483F80023AD
:104370000AE03B68DAB20849FB7903F00F03043B1B
:104380001201D2B20B441A7600BF0C37BD465DF85D
:10439000047B704700E100E000ED00E080B489B0EC
:1043A00000AFF860B9607A60FB6803F00703FB6157
:1043B000FB69C3F10703042B28BF0423BB61FB691E
:1043C0000433062B02D9FB69033B00E000237B6129
:1043D0004FF0FF32BB6902FA03F3DA43BB681A40BD
:1043E0007B699A404FF0FF317B6901FA03F3D943AF
:1043F0007B680B40134318462437BD465DF8047BA9
:104400007047000080B582B000AF78607B68013BE8
:10441000B3F1807F01D301230FE00A4A7B68013B9F
:1044200053600F214FF0FF30FFF78EFF054B002246
:104430009A60044B07221A60002318460837BD46CD
:1044400080BD00BF10E000E080B582B000AF7860B2
:104450007868FFF729FF00BF0837BD4680BD80B5EB
:1044600086B000AF0346B9607A60FB7300237B61BE
:10447000FFF73EFF78617A68B9687869FFF78EFFC9
:10448000024697F90F3011461846FFF75DFF00BF4F
:104490001837BD4680BD80B582B000AF0346FB71C2
:1044A00097F907301846FFF731FF00BF0837BD46C0
:1044B00080BD80B582B000AF78607868FFF7A2FF5A
:1044C000034618460837BD4680BD000080B586B05B
:1044D00000AF786000237B61FFF7B6FA38617B6834
:1044E000002B01D1012399E07B68022283F835205B
:1044F0007B68002283F834207B681B681A687B681D
:104500001B6822F001021A600FE0FFF79DFA0246D5
:104510003B69D31A052B08D97B6820225A657B6832
:10452000032283F83520032378E07B681B681B682F
:1045300003F00103002BE8D17B681B681B687B61DB
:104540007A69384B13407B617B685A687B689B684B
:104550001A437B68DB681A437B681B691A437B68D4
:104560005B691A437B689B691A437B68DB691A4362
:104570007B681B6A13437A6913437B617B685B6AC0
:10458000042B07D17B68DA6A7B681B6B13437A695B
:1045900013437B617B681B687A691A607B681B68C0
:1045A0005B697B617B6923F007037B617B685B6AE6
:1045B0007A6913437B617B685B6A042B17D17B6844
:1045C0009B6A7A6913437B617B68DB6A002B0ED0A0
:1045D000786800F001FB0346002B08D07B6840227E
:1045E0005A657B68012283F83520012316E07B6839
:1045F0001B687A695A61786800F0B8FA0346FB6074
:104600007B68DB6D3F229A40FB689A607B680022E2
:104610005A657B68012283F8352000231846183735
:10462000BD4680BD3F8010F080B586B000AFF86019
:10463000B9607A603B600023FB75FB689B6D3B6152
:10464000FB6893F83430012B01D1022340E0FB6872
:10465000012283F83420FB6893F83530DBB2012B5C
:104660002FD1FB68022283F83520FB6800225A65AF
:104670003B687A68B968F86800F04AFAFB68DB6D55
:104680003F229A403B699A60FB681B681A68FB6886
:104690001B6842F016021A60FB681B6C002B07D0E7
:1046A000FB681B681A68FB681B6842F008021A6006
:1046B000FB681B681A68FB681B6842F001021A60FD
:1046C00005E0FB68002283F834200223FB75FB7DA4
:1046D00018461837BD4680BD80B584B000AF7860FD
:1046E0007B689B6DFB60FFF7AFF9B8607B6893F860
:1046F0003530DBB2022B08D07B6880225A657B689C
:10470000002283F83420012352E07B681B681A687A
:104710007B681B6822F016021A607B681B685A6966
:104720007B681B6822F080025A617B681B6C002B3F
:1047300003D17B689B6C002B07D07B681B681A68D1
:104740007B681B6822F008021A607B681B681A6885
:104750007B681B6822F001021A6013E0FFF774F90E
:104760000246BB68D31A052B0CD97B6820225A65F8
:104770007B68032283F835207B68002283F834208D
:10478000032315E07B681B681B6803F00103002B03
:10479000E4D17B68DB6D3F229A40FB689A607B68BE
:1047A000012283F835207B68002283F8342000231F
:1047B00018461037BD4680BD80B483B000AF786026
:1047C0007B6893F83530DBB2022B04D07B68802203
:1047D0005A6501230CE07B68052283F835207B684D
:1047E0001B681A687B681B6822F001021A600023AC
:1047F00018460C37BD465DF8047B704780B586B01F
:1048000000AF78600023BB608E4B1B688E4AA2FB12
:1048100003239B0A7B617B689B6D3B613B691B6843
:10482000FB607B68DB6D08229A40FB681340002B1D
:104830001AD07B681B681B6803F00403002B13D09D
:104840007B681B681A687B681B6822F004021A6088
:104850007B68DB6D08229A403B699A607B685B6DE0
:1048600043F001027B685A657B68DB6D01229A4048
:10487000FB681340002B12D07B681B685B6903F058
:104880008003002B0BD07B68DB6D01229A403B69D3
:104890009A607B685B6D43F002027B685A657B68B7
:1048A000DB6D04229A40FB681340002B12D07B681A
:1048B0001B681B6803F00203002B0BD07B68DB6DC9
:1048C00004229A403B699A607B685B6D43F0040266
:1048D0007B685A657B68DB6D10229A40FB68134049
:1048E000002B43D07B681B681B6803F00803002B78
:1048F0003CD07B68DB6D10229A403B699A607B68F4
:104900001B681B6803F48023002B18D07B681B688E
:104910001B6803F40023002B08D17B681B6C002B61
:1049200024D07B681B6C786898471FE07B689B6C81
:10493000002B1BD07B689B6C7868984716E07B68DF
:104940001B681B6803F48073002B07D17B681B680E
:104950001A687B681B6822F008021A607B681B6C6F
:10496000002B03D07B681B6C786898477B68DB6DF5
:1049700020229A40FB681340002B00F08F807B6858
:104980001B681B6803F01003002B00F087807B6816
:10499000DB6D20229A403B699A607B6893F8353042
:1049A000DBB2052B36D17B681B681A687B681B68F5
:1049B00022F016021A607B681B685A697B681B68C4
:1049C00022F080025A617B681B6C002B03D17B684C
:1049D0009B6C002B07D07B681B681A687B681B6880
:1049E00022F008021A607B68DB6D3F229A403B6927
:1049F0009A607B68012283F835207B68002283F867
:104A000034207B681B6D002B7ED07B681B6D786823
:104A1000984779E07B681B681B6803F48023002BB0
:104A20001DD07B681B681B6803F40023002B0DD18D
:104A30007B685B6C002B31D07B685B6C7868984737
:104A40002CE000BF90010020B5814E1B7B68DB6B22
:104A5000002B23D07B68DB6B786898471EE07B686F
:104A60001B681B6803F48073002B0FD17B681B68E5
:104A70001A687B681B6822F010021A607B680122AA
:104A800083F835207B68002283F834207B68DB6B59
:104A9000002B03D07B68DB6B786898477B685B6D85
:104AA000002B32D07B685B6D03F00103002B22D01A
:104AB0007B68052283F835207B681B681A687B6851
:104AC0001B6822F001021A60BB680133BB607A697F
:104AD0009A4207D37B681B681B6803F00103002B15
:104AE000F2D100E000BF7B68012283F835207B68AB
:104AF000002283F834207B68DB6C002B05D07B68B8
:104B0000DB6C7868984700E000BF1837BD4680BD71
:104B100080B485B000AFF860B9607A603B60FB6834
:104B20001B681A68FB681B6822F480221A60FB6805
:104B30001B683A685A60FB689B68402B08D1FB6889
:104B40001B687A689A60FB681B68BA68DA6007E0DD
:104B5000FB681B68BA689A60FB681B687A68DA6051
:104B600000BF1437BD465DF8047B704780B485B044
:104B700000AF78607B681B68DBB2103B144AA2FB75
:104B800003231B09FB60134AFB6813441B781A4676
:104B90007B68DA65FB68032B09D97B681B6823F403
:104BA0007F7323F003031A1D7B689A6507E07B6817
:104BB0001B6823F47F7323F003037A6893657B6893
:104BC0009B6D18461437BD465DF8047B704700BFE7
:104BD000ABAAAAAA64C7000880B485B000AF786009
:104BE0000023FB737B689B6ABB607B689B69002B1F
:104BF0001FD1BB68032B56D801A252F823F000BF87
:104C0000114C0008234C0008114C0008A74C000868
:104C10007B68DB6A03F08073002B46D00123FB73B3
:104C200043E07B68DB6AB3F1C07F40D10123FB73B3
:104C30003DE07B689B69B3F5005F21D1BB68032B26
:104C400037D801A252F823F0594C00085F4C0008F5
:104C5000594C0008714C00080123FB7330E07B685D
:104C6000DB6A03F08073002B25D00123FB7322E065
:104C70007B68DB6AB3F1C07F1FD10123FB731CE0AB
:104C8000BB68022B03D9BB68032B03D018E00123B8
:104C9000FB7315E07B68DB6A03F08073002B0ED09A
:104CA0000123FB730BE000BF0AE000BF08E000BF78
:104CB00006E000BF04E000BF02E000BF00E000BF6C
:104CC000FB7B18461437BD465DF8047B704700BF78
:104CD00080B489B000AF7860396000237B61002325
:104CE0003B610023BB610023FB616BE10122FB6997
:104CF00002FA03F37B613B681B687A6913403B61EE
:104D00003A697B699A4240F05A813B685B6803F0DC
:104D10000303012B05D03B685B6803F00303022B00
:104D200030D17B689B68BB61FB695B00032202FAA0
:104D300003F3DB43BA691340BB613B68DA68FB6984
:104D40005B0002FA03F3BA691343BB617B68BA697B
:104D50009A607B685B68BB610122FB6902FA03F31E
:104D6000DB43BA691340BB613B685B681B0903F016
:104D70000102FB6902FA03F3BA691343BB617B6862
:104D8000BA695A603B685B6803F00303032B17D0D2
:104D90007B68DB68BB61FB695B00032202FA03F3FB
:104DA000DB43BA691340BB613B689A68FB695B00EF
:104DB00002FA03F3BA691343BB617B68BA69DA602C
:104DC0003B685B6803F00303022B23D1FB69DA081D
:104DD0007B68083253F82230BB61FB6903F007039C
:104DE0009B000F2202FA03F3DB43BA691340BB6155
:104DF0003B681A69FB6903F007039B0002FA03F39F
:104E0000BA691343BB61FB69DA087B680832B96988
:104E100043F822107B681B68BB61FB695B000322BF
:104E200002FA03F3DB43BA691340BB613B685B687A
:104E300003F00302FB695B0002FA03F3BA69134350
:104E4000BB617B68BA691A603B685B6803F44033F6
:104E5000002B00F0B4800023FB60604B5B6C5F4A6A
:104E600043F4804353645D4B5B6C03F48043FB600D
:104E7000FB685B4AFB699B08023352F82330BB6135
:104E8000FB6903F003039B000F2202FA03F3DB43E9
:104E9000BA691340BB617B68524A93422BD07B684E
:104EA000514A934225D07B68504A93421FD07B6879
:104EB0004F4A934219D07B684E4A934213D07B6885
:104EC0004D4A93420DD07B684C4A934207D07B6891
:104ED0004B4A934201D107230EE008230CE006233E
:104EE0000AE0052308E0042306E0032304E002238C
:104EF00002E0012300E00023FA6902F003029200BD
:104F00009340BA691343BB613549FB699B0802337F
:104F1000BA6941F823203B4B9B68BB613B69DB438B
:104F2000BA691340BB613B685B6803F48013002BD4
:104F300003D0BA693B691343BB61324ABB699360D2
:104F4000304BDB68BB613B69DB43BA691340BB6133
:104F50003B685B6803F40013002B03D0BA693B691C
:104F60001343BB61274ABB69D360264B5B68BB61B7
:104F70003B69DB43BA691340BB613B685B6803F480
:104F80000033002B03D0BA693B691343BB611D4A50
:104F9000BB6953601B4B1B68BB613B69DB43BA6950
:104FA0001340BB613B685B6803F48033002B03D084
:104FB000BA693B691343BB61124ABB691360FB6961
:104FC0000133FB61FB690F2B7FF690AE00BF00BF82
:104FD0002437BD465DF8047B704700BF00380240AF
:104FE0000038014000000240000402400008024076
:104FF000000C024000100240001402400018024061
:10500000001C0240003C014080B485B000AF7860D5
:105010000B467B807B681A697B881340002B02D08B
:105020000123FB7301E00023FB73FB7B184614375D
:10503000BD465DF8047B704780B483B000AF7860F4
:105040000B467B8013467B707B78002B03D07A88DD
:105050007B689A6103E07B881A047B689A6100BFD1
:105060000C37BD465DF8047B704780B485B000AF57
:1050700078600B467B807B685B69FB607A88FB68A5
:1050800013401A04FB68D9437B880B401A437B68A2
:105090009A6100BF1437BD465DF8047B704700007D
:1050A00080B584B000AF78607B68002B01D101230C
:1050B0002BE17B6893F83D30DBB2002B06D17B6897
:1050C000002283F83C207868FCF738FE7B682422B5
:1050D00083F83D207B681B681A687B681B6822F098
:1050E00001021A607B681B681A687B681B6842F4BF
:1050F00000421A607B681B681A687B681B6822F490
:1051000000421A6001F048F8F8607B685B68814AE9
:10511000934207D8FB68804A934294BF012300233F
:10512000DBB206E0FB687D4A934294BF0123002373
:10513000DBB2002B01D00123E7E0FB68784AA2FB39
:1051400003239B0CBB607B681B685B6823F03F01FB
:105150007B681B68BA680A435A607B681B681B6AD5
:1051600023F03F017B685B686A4A934202D8BB68C0
:10517000013309E0BB684FF4967202FB03F3694AFE
:10518000A2FB03239B0901337A6812680B43136265
:105190007B681B68DB6923F44F4222F0FF027B68C7
:1051A0005B685C498B4219D8FB68591E7B685B6859
:1051B0005B00B1FBF3F3591C40F6FC730B40002B72
:1051C0000AD0FB68591E7B685B685B00B1FBF3F398
:1051D0000133C3F30B0351E004234FE07B689B686A
:1051E000002B11D1FB68581E7B6859680B465B0089
:1051F0000B44B0FBF3F30133C3F30B03002B0CBFE1
:1052000001230023DBB212E0FB68581E7B6859685B
:105210000B469B000B4499000B44B0FBF3F30133A6
:10522000C3F30B03002B0CBF01230023DBB2002BC5
:1052300001D0012322E07B689B68002B0ED1FB6824
:10524000581E7B6859680B465B000B44B0FBF3F3B8
:105250000133C3F30B0343F400430FE0FB68581E14
:105260007B6859680B469B000B4499000B44B0FBCC
:10527000F3F30133C3F30B0343F440437968096844
:105280001343CB617B681B681B6823F0C0017B68FC
:10529000DA697B681B6A1A437B681B680A431A60D9
:1052A0007B681B689B6823F4034323F0FF037A6841
:1052B00011697A68D26811437A6812680B43936067
:1052C0007B681B68DB6823F0FF017B685A697B6899
:1052D0009B691A437B681B680A43DA607B681B681A
:1052E0001A687B681B6842F001021A607B68002222
:1052F0001A647B68202283F83D207B6800221A63B1
:105300007B68002283F83E20002318461037BD46F4
:1053100080BD00BFA08601007F841E00FF083D0005
:1053200083DE1B43D34D621080B588B002AFF860B6
:105330007A601A460B467B8113463B81FEF784FB5D
:105340007861FB6893F83D30DBB2202B40F0E080C1
:105350007B690093192301227049F86800F064F911
:105360000346002B01D00223D3E0FB6893F83C30C6
:10537000012B01D10223CCE0FB68012283F83C2001
:10538000FB681B681B6803F00103012B07D0FB6857
:105390001B681A68FB681B6842F001021A60FB6810
:1053A0001B681A68FB681B6822F400621A60FB68BD
:1053B000212283F83D20FB68102283F83E20FB6801
:1053C00000221A64FB687A685A62FB683A895A8537
:1053D000FB685B8D9AB2FB681A85FB68504ADA62FB
:1053E00079897B693A6AF86800F09CF80346002BDB
:1053F00001D001238DE000233B61FB681B685B69E2
:105400003B61FB681B689B693B613B6966E07A69AD
:10541000396AF86800F0DEF90346002B0DD0FB680E
:105420001B6C042B07D1FB681B681A68FB681B68A0
:1054300042F400721A6001236BE0FB685B6A1A7821
:10544000FB681B681A61FB685B6A5A1CFB685A623E
:10545000FB685B8D9BB2013B9AB2FB685A85FB6887
:105460001B8D013B9AB2FB681A85FB681B685B6960
:1054700003F00403042B1BD1FB681B8D002B17D0FA
:10548000FB685B6A1A78FB681B681A61FB685B6AD9
:105490005A1CFB685A62FB685B8D9BB2013B9AB257
:1054A000FB685A85FB681B8D013B9AB2FB681A8525
:1054B0007A69396AF86800F0CEF90346002B0DD0FE
:1054C000FB681B6C042B07D1FB681B681A68FB6820
:1054D0001B6842F400721A6001231AE0FB681B8DFE
:1054E000002B94D1FB681B681A68FB681B6842F4A8
:1054F00000721A60FB68202283F83D20FB680022BE
:1055000083F83E20FB68002283F83C20002300E063
:10551000022318461837BD4680BD00BF02001000A8
:105520000000FFFF80B588B002AFF8607A603B6092
:105530000B467B81FB68DB6A7B617B69082B06D0AD
:105540007B69012B03D07B6913F5803F08D1FB6891
:105550001B681A68FB681B6842F480721A600BE0D3
:10556000FB681B6B122B07D1FB681B681A68FB6872
:105570001B6842F480721A603B6800937B680022CB
:105580004FF00111F86800F04FF80346002B0DD0E2
:10559000FB681B681B6803F48073B3F5807F03D13D
:1055A000FB684FF400721A64032335E0FB681B6943
:1055B000B3F5804F08D17B89DBB21A46FB681B68C4
:1055C00002F0FE021A611BE07B89DB11DBB203F003
:1055D0000603DBB263F00F03DAB2FB681B681A61E3
:1055E0003B687A680E49F86800F075F80346002BAE
:1055F00001D0012310E07B89DAB2FB681B681A61D5
:105600003B687A680749F86800F065F80346002BA4
:1056100001D0012300E0002318461837BD4680BDA5
:10562000080001000200010080B584B000AFF860FE
:10563000B9603B601346FB7125E03B68B3F1FF3F67
:1056400021D0FEF701FA0246BB69D31A3A689A42A2
:1056500002D33B68002B16D1FB6800221A63FB685B
:10566000202283F83D20FB68002283F83E20FB685F
:105670001B6C43F02002FB681A64FB68002283F86D
:105680003C20012323E0BB681B0CDBB2012B0DD1B6
:10569000FB681B685B69DA43BB6813409BB2002B55
:1056A0000CBF01230023DBB21A460CE0FB681B6829
:1056B0009B69DA43BB6813409BB2002B0CBF0123EC
:1056C0000023DBB21A46FB799A42B6D00023184673
:1056D0001037BD4680BD80B584B000AFF860B960BA
:1056E0007A603B6051E0FB681B685B6903F4806390
:1056F000B3F5806F23D1FB681B681A68FB681B68D1
:1057000042F400721A60FB681B686FF480625A6191
:10571000FB6800221A63FB68202283F83D20FB68A7
:10572000002283F83E20FB681B6C43F00402FB68F8
:105730001A64FB68002283F83C20012346E07B6862
:10574000B3F1FF3F21D0FEF77FF902463B68D31A41
:105750007A689A4202D37B68002B16D1FB6800223C
:105760001A63FB68202283F83D20FB68002283F83F
:105770003E20FB681B6C43F02002FB681A64FB6848
:10578000002283F83C20012320E0BB681B0CDBB225
:10579000012B0CD1FB681B685B69DA43BB681340C3
:1057A0009BB2002B14BF01230023DBB20BE0FB688C
:1057B0001B689B69DA43BB6813409BB2002B14BF84
:1057C00001230023DBB2002B8DD1002318461037B4
:1057D000BD4680BD80B584B000AFF860B9607A6026
:1057E0002DE0F86800F078F80346002B01D0012383
:1057F0002DE0BB68B3F1FF3F21D0FEF725F902464B
:105800007B68D31ABA689A4202D3BB68002B16D1C0
:10581000FB6800221A63FB68202283F83D20FB68A6
:10582000002283F83E20FB681B6C43F02002FB68DB
:105830001A64FB68002283F83C20012307E0FB6820
:105840001B685B6903F08003802BCAD100231846D4
:105850001037BD4680BD80B584B000AFF860B96038
:105860007A602DE0F86800F037F80346002B01D08D
:1058700001232DE0BB68B3F1FF3F21D0FEF7E4F830
:1058800002467B68D31ABA689A4202D3BB68002BDF
:1058900016D1FB6800221A63FB68202283F83D20A2
:1058A000FB68002283F83E20FB681B6C43F020025B
:1058B000FB681A64FB68002283F83C20012307E0A0
:1058C000FB681B685B6903F00403042BCAD1002347
:1058D00018461037BD4680BD80B483B000AF7860F5
:1058E0007B681B685B6903F48063B3F5806F1BD131
:1058F0007B681B686FF480625A617B6800221A63C0
:105900007B68202283F83D207B68002283F83E20BC
:105910007B681B6C43F004027B681A647B6800227E
:1059200083F83C20012300E0002318460C37BD46D5
:105930005DF8047B7047000080B586B000AF7860EA
:105940007B68002B01D1012367E27B681B6803F0B1
:105950000103002B75D0884B9B6803F00C03042BCC
:105960000CD0854B9B6803F00C03082B12D1824BA3
:105970005B6803F48003B3F5800F0BD17E4B1B688B
:1059800003F40033002B5BD07B685B68002B57D19E
:10599000012342E27B685B68B3F5803F06D1764B1A
:1059A0001B68754A43F4803313601DE07B685B68B5
:1059B000B3F5A02F0CD1704B1B686F4A43F48023C2
:1059C00013606D4B1B686C4A43F4803313600BE02B
:1059D000694B1B68684A23F480331360664B1B686D
:1059E000654A23F4802313607B685B68002B13D027
:1059F000FEF72AF8386108E0FEF726F802463B6910
:105A0000D31A642B01D9032307E25B4B1B6803F411
:105A10000033002BF0D014E0FEF716F8386108E0F0
:105A2000FEF712F802463B69D31A642B01D903230F
:105A3000F3E1514B1B6803F40033002BF0D100E07D
:105A400000BF7B681B6803F00203002B63D04A4B46
:105A50009B6803F00C03002B0BD0474B9B6803F0B3
:105A60000C03082B1CD1444B5B6803F48003002B10
:105A700016D1414B1B6803F00203002B05D07B6855
:105A8000DB68012B01D00123C7E13B4B1B6823F0EE
:105A9000F8027B681B69DB00374913430B603AE06F
:105AA0007B68DB68002B20D0344B01221A60FDF7A5
:105AB000CBFF386108E0FDF7C7FF02463B69D31A08
:105AC000022B01D90323A8E12B4B1B6803F002032F
:105AD000002BF0D0284B1B6823F0F8027B681B6971
